{
  "_format": "hh-sol-artifact-1",
  "contractName": "BlockitusMarketplace",
  "sourceName": "contracts/BlockitusMarketplace.sol",
  "abi": [
    {
      "inputs": [],
      "stateMutability": "nonpayable",
      "type": "constructor"
    },
    {
      "anonymous": false,
      "inputs": [
        {
          "indexed": true,
          "internalType": "address",
          "name": "buyer",
          "type": "address"
        },
        {
          "indexed": true,
          "internalType": "address",
          "name": "seller",
          "type": "address"
        },
        {
          "indexed": false,
          "internalType": "uint256",
          "name": "id",
          "type": "uint256"
        },
        {
          "indexed": false,
          "internalType": "uint256",
          "name": "price",
          "type": "uint256"
        }
      ],
      "name": "Buy",
      "type": "event"
    },
    {
      "anonymous": false,
      "inputs": [
        {
          "indexed": true,
          "internalType": "address",
          "name": "seller",
          "type": "address"
        },
        {
          "indexed": false,
          "internalType": "uint256",
          "name": "id",
          "type": "uint256"
        },
        {
          "indexed": false,
          "internalType": "uint256",
          "name": "price",
          "type": "uint256"
        }
      ],
      "name": "Sell",
      "type": "event"
    },
    {
      "inputs": [
        {
          "internalType": "address",
          "name": "collection",
          "type": "address"
        },
        {
          "internalType": "uint256",
          "name": "id",
          "type": "uint256"
        }
      ],
      "name": "buy",
      "outputs": [],
      "stateMutability": "payable",
      "type": "function"
    },
    {
      "inputs": [],
      "name": "getBalance",
      "outputs": [
        {
          "internalType": "uint256",
          "name": "",
          "type": "uint256"
        }
      ],
      "stateMutability": "view",
      "type": "function"
    },
    {
      "inputs": [
        {
          "internalType": "address",
          "name": "collection",
          "type": "address"
        },
        {
          "internalType": "uint256",
          "name": "id",
          "type": "uint256"
        }
      ],
      "name": "getPrice",
      "outputs": [
        {
          "internalType": "uint256",
          "name": "",
          "type": "uint256"
        }
      ],
      "stateMutability": "view",
      "type": "function"
    },
    {
      "inputs": [
        {
          "internalType": "address",
          "name": "collection",
          "type": "address"
        },
        {
          "internalType": "uint256",
          "name": "id",
          "type": "uint256"
        }
      ],
      "name": "net_pay",
      "outputs": [
        {
          "internalType": "uint256",
          "name": "",
          "type": "uint256"
        }
      ],
      "stateMutability": "view",
      "type": "function"
    },
    {
      "inputs": [],
      "name": "owner",
      "outputs": [
        {
          "internalType": "address",
          "name": "",
          "type": "address"
        }
      ],
      "stateMutability": "view",
      "type": "function"
    },
    {
      "inputs": [
        {
          "internalType": "address",
          "name": "collection",
          "type": "address"
        },
        {
          "internalType": "uint256",
          "name": "id",
          "type": "uint256"
        },
        {
          "internalType": "uint256",
          "name": "price",
          "type": "uint256"
        }
      ],
      "name": "sell",
      "outputs": [],
      "stateMutability": "nonpayable",
      "type": "function"
    },
    {
      "inputs": [],
      "name": "withdraw",
      "outputs": [],
      "stateMutability": "nonpayable",
      "type": "function"
    }
  ],
  "bytecode": "0x608060405234801561001057600080fd5b50336000806101000a81548173ffffffffffffffffffffffffffffffffffffffff021916908373ffffffffffffffffffffffffffffffffffffffff160217905550611112806100606000396000f3fe6080604052600436106100705760003560e01c80635962f0f51161004e5780635962f0f5146100f45780636a272462146101315780638da5cb5b1461015a578063cce7ec131461018557610070565b806312065fe0146100755780633ccfd60b146100a0578063449e815d146100b7575b600080fd5b34801561008157600080fd5b5061008a6101a1565b6040516100979190610ad5565b60405180910390f35b3480156100ac57600080fd5b506100b56101a9565b005b3480156100c357600080fd5b506100de60048036038101906100d99190610b7f565b6102a0565b6040516100eb9190610ad5565b60405180910390f35b34801561010057600080fd5b5061011b60048036038101906101169190610b7f565b6102fb565b6040516101289190610ad5565b60405180910390f35b34801561013d57600080fd5b5061015860048036038101906101539190610bbf565b61036e565b005b34801561016657600080fd5b5061016f610676565b60405161017c9190610c21565b60405180910390f35b61019f600480360381019061019a9190610b7f565b61069a565b005b600047905090565b60008054906101000a900473ffffffffffffffffffffffffffffffffffffffff1673ffffffffffffffffffffffffffffffffffffffff163373ffffffffffffffffffffffffffffffffffffffff1614610237576040517f08c379a000000000000000000000000000000000000000000000000000000000815260040161022e90610cbf565b60405180910390fd5b60008054906101000a900473ffffffffffffffffffffffffffffffffffffffff1673ffffffffffffffffffffffffffffffffffffffff166108fc479081150290604051600060405180830381858888f1935050505015801561029d573d6000803e3d6000fd5b50565b6000600260008473ffffffffffffffffffffffffffffffffffffffff1673ffffffffffffffffffffffffffffffffffffffff168152602001908152602001600020600083815260200190815260200160002054905092915050565b600080600260008573ffffffffffffffffffffffffffffffffffffffff1673ffffffffffffffffffffffffffffffffffffffff168152602001908152602001600020600084815260200190815260200160002054905061035a81610a97565b816103659190610d0e565b91505092915050565b82600160006101000a81548173ffffffffffffffffffffffffffffffffffffffff021916908373ffffffffffffffffffffffffffffffffffffffff1602179055503373ffffffffffffffffffffffffffffffffffffffff16600160009054906101000a900473ffffffffffffffffffffffffffffffffffffffff1673ffffffffffffffffffffffffffffffffffffffff16636352211e846040518263ffffffff1660e01b81526004016104219190610ad5565b602060405180830381865afa15801561043e573d6000803e3d6000fd5b505050506040513d601f19601f820116820180604052508101906104629190610d57565b73ffffffffffffffffffffffffffffffffffffffff16148061054a57503373ffffffffffffffffffffffffffffffffffffffff16600160009054906101000a900473ffffffffffffffffffffffffffffffffffffffff1673ffffffffffffffffffffffffffffffffffffffff1663081812fc846040518263ffffffff1660e01b81526004016104f19190610ad5565b602060405180830381865afa15801561050e573d6000803e3d6000fd5b505050506040513d601f19601f820116820180604052508101906105329190610d57565b73ffffffffffffffffffffffffffffffffffffffff16145b610589576040517f08c379a000000000000000000000000000000000000000000000000000000000815260040161058090610df6565b60405180910390fd5b600081116105cc576040517f08c379a00000000000000000000000000000000000000000000000000000000081526004016105c390610e88565b60405180910390fd5b80600260008573ffffffffffffffffffffffffffffffffffffffff1673ffffffffffffffffffffffffffffffffffffffff1681526020019081526020016000206000848152602001908152602001600020819055503373ffffffffffffffffffffffffffffffffffffffff167fed7a144fad14804d5c249145e3e0e2b63a9eb455b76aee5bc92d711e9bba3e4a8383604051610669929190610ea8565b60405180910390a2505050565b60008054906101000a900473ffffffffffffffffffffffffffffffffffffffff1681565b81600160006101000a81548173ffffffffffffffffffffffffffffffffffffffff021916908373ffffffffffffffffffffffffffffffffffffffff1602179055506000600160009054906101000a900473ffffffffffffffffffffffffffffffffffffffff1673ffffffffffffffffffffffffffffffffffffffff16636352211e836040518263ffffffff1660e01b81526004016107389190610ad5565b602060405180830381865afa158015610755573d6000803e3d6000fd5b505050506040513d601f19601f820116820180604052508101906107799190610d57565b90506000600260008573ffffffffffffffffffffffffffffffffffffffff1673ffffffffffffffffffffffffffffffffffffffff168152602001908152602001600020600084815260200190815260200160002054905060006107dc85856102fb565b9050600081346107ec9190610ed1565b90506000341180156107fe5750813410155b61083d576040517f08c379a000000000000000000000000000000000000000000000000000000000815260040161083490610f51565b60405180910390fd5b8373ffffffffffffffffffffffffffffffffffffffff163373ffffffffffffffffffffffffffffffffffffffff16036108ab576040517f08c379a00000000000000000000000000000000000000000000000000000000081526004016108a290610fe3565b60405180910390fd5b600160009054906101000a900473ffffffffffffffffffffffffffffffffffffffff1673ffffffffffffffffffffffffffffffffffffffff166342842e0e8533886040518463ffffffff1660e01b815260040161090a93929190611003565b600060405180830381600087803b15801561092457600080fd5b505af1158015610938573d6000803e3d6000fd5b50505050600260008773ffffffffffffffffffffffffffffffffffffffff1673ffffffffffffffffffffffffffffffffffffffff1681526020019081526020016000206000868152602001908152602001600020600090558373ffffffffffffffffffffffffffffffffffffffff166108fc849081150290604051600060405180830381858888f193505050501580156109d6573d6000803e3d6000fd5b506000811115610a28573373ffffffffffffffffffffffffffffffffffffffff166108fc829081150290604051600060405180830381858888f19350505050158015610a26573d6000803e3d6000fd5b505b8373ffffffffffffffffffffffffffffffffffffffff163373ffffffffffffffffffffffffffffffffffffffff167f89f5adc174562e07c9c9b1cae7109bbecb21cf9d1b2847e550042b8653c54a0e8786604051610a87929190610ea8565b60405180910390a3505050505050565b60006064600160ff1683610aab919061103a565b610ab591906110ab565b9050919050565b6000819050919050565b610acf81610abc565b82525050565b6000602082019050610aea6000830184610ac6565b92915050565b600080fd5b600073ffffffffffffffffffffffffffffffffffffffff82169050919050565b6000610b2082610af5565b9050919050565b610b3081610b15565b8114610b3b57600080fd5b50565b600081359050610b4d81610b27565b92915050565b610b5c81610abc565b8114610b6757600080fd5b50565b600081359050610b7981610b53565b92915050565b60008060408385031215610b9657610b95610af0565b5b6000610ba485828601610b3e565b9250506020610bb585828601610b6a565b9150509250929050565b600080600060608486031215610bd857610bd7610af0565b5b6000610be686828701610b3e565b9350506020610bf786828701610b6a565b9250506040610c0886828701610b6a565b9150509250925092565b610c1b81610b15565b82525050565b6000602082019050610c366000830184610c12565b92915050565b600082825260208201905092915050565b7f4e6f74696669636174696f6e3a20596f7520617265206e6f7420746865206f7760008201527f6e65720000000000000000000000000000000000000000000000000000000000602082015250565b6000610ca9602383610c3c565b9150610cb482610c4d565b604082019050919050565b60006020820190508181036000830152610cd881610c9c565b9050919050565b7f4e487b7100000000000000000000000000000000000000000000000000000000600052601160045260246000fd5b6000610d1982610abc565b9150610d2483610abc565b9250828201905080821115610d3c57610d3b610cdf565b5b92915050565b600081519050610d5181610b27565b92915050565b600060208284031215610d6d57610d6c610af0565b5b6000610d7b84828501610d42565b91505092915050565b7f4d61726b6574706c6163653a20596f752068617665206e6f74207065726d697460008201527f73206f7665722074686973206974656d00000000000000000000000000000000602082015250565b6000610de0603083610c3c565b9150610deb82610d84565b604082019050919050565b60006020820190508181036000830152610e0f81610dd3565b9050919050565b7f4d61726b6574706c6163653a205468652070726963652073686f756c6420626560008201527f2067726561746572207468616e20302e00000000000000000000000000000000602082015250565b6000610e72603083610c3c565b9150610e7d82610e16565b604082019050919050565b60006020820190508181036000830152610ea181610e65565b9050919050565b6000604082019050610ebd6000830185610ac6565b610eca6020830184610ac6565b9392505050565b6000610edc82610abc565b9150610ee783610abc565b9250828203905081811115610eff57610efe610cdf565b5b92915050565b7f4d61726b6574706c6163653a204572726f7220696e20616d6f756e7400000000600082015250565b6000610f3b601c83610c3c565b9150610f4682610f05565b602082019050919050565b60006020820190508181036000830152610f6a81610f2e565b9050919050565b7f4d61726b6574706c6163653a20596f752061726520746865204e46542773206f60008201527f776e657200000000000000000000000000000000000000000000000000000000602082015250565b6000610fcd602483610c3c565b9150610fd882610f71565b604082019050919050565b60006020820190508181036000830152610ffc81610fc0565b9050919050565b60006060820190506110186000830186610c12565b6110256020830185610c12565b6110326040830184610ac6565b949350505050565b600061104582610abc565b915061105083610abc565b925082820261105e81610abc565b9150828204841483151761107557611074610cdf565b5b5092915050565b7f4e487b7100000000000000000000000000000000000000000000000000000000600052601260045260246000fd5b60006110b682610abc565b91506110c183610abc565b9250826110d1576110d061107c565b5b82820490509291505056fea2646970667358221220b7c984aad77115d91c79a09c7b7f8c8363ed50c2dd84eb700f186755c58d607864736f6c63430008110033",
  "linkReferences": {},
  "deployedLinkReferences": {}
}